S0190000536F7274696E672D416C676F726974686D2E7372656351
S11300000C942A000C9447000C9447000C9447006D
S11300100C9447000C9447000C9447000C94470040
S11300200C9447000C9447000C9447000C944A002D
S11300300C9447000C9447000C9447000C94470020
S11300400C9447000C9447000C9447000C94470010
S11300500C94470011241FBECFE5D8E0DEBFCDBF0E
S113006010E0A0E6B0E0EAEEF0E002C005900D92E8
S1130070A036B107D9F720E0A0E6B0E001C01D9298
S1130080A236B207E1F70E9449000C9473000C9465
S11300900000FFCF1F920F920FB60F9211242F93DF
S11300A03F934F935F936F937F938F939F93AF93FC
S11300B0BF93EF93FF93E0916000F091610030975C
S11300C009F00995FF91EF91BF91AF919F918F91A5
S11300D07F916F915F914F913F912F910F900FBE40
S10D00E00F901F901895F894FFCFBD
S9030000FC
