S0190000536F7274696E672D416C676F726974686D2E7372656351
S11300000C942A000C9447000C9447000C9447006D
S11300100C9447000C9447000C9447000C94470040
S11300200C9447000C9447000C9447000C94500324
S11300300C9447000C9447000C9447000C94470020
S11300400C9447000C9447000C9447000C94470010
S11300500C94470011241FBECFE5D8E0DEBFCDBF0E
S113006010E0A0E6B0E0EEE1FDE002C005900D92E4
S1130070A437B107D9F720E0A4E7B0E001C01D928E
S1130080A737B207E1F70E94CD010C948D060C94BA
S1130090000081B38F7781BB81B38F7B81BB81B338
S11300A08F7D81BB81B3877F81BB84B3806284BB36
S11300B084B3806184BB84B3886084BB84B384606C
S11300C084BB82B3806882BB82B3806482BB82B308
S11300D0806282BB82B3886082BB08958FEFE5E0C3
S11300E062C095B39C6395BB95B36E2F70E021E01D
S11300F030E00E2E02C0220F331F0A94E2F720953F
S1130100292325BB97E04BC0943009F4915020B3C8
S1130110492F50E030E0092E02C0359527950A9406
S1130120E2F720FD3BC02FEF3BEDF5E021503040DE
S1130130F040E1F700C0000020B330E0092E02C017
S1130140359527950A94E2F720FD28C0933099F459
S113015085E090E0861B970B26E030E0241B350BEE
S1130160880F991F880F991F805A9F4FDC01A20F97
S1130170B31F8C9117C085E090E0861B970B27E096
S113018030E0241B350B880F991F880F991F805A64
S11301909F4FDC01A20FB31F8C9104C09150933088
S11301A008F0B2CFE150E23008F09BCF089598B345
S11301B0987E98BB282F22952F7038B3922F987071
S11301C0492F50E0440F551F2770422B432B48BB47
S11301D09BB3977F9BBB9BB394609BBB95E09A9525
S11301E0F1F700009BB39B7F9BBBEFE3FFE13197EB
S11301F0F1F700C0000098B3987E98BB48B3982FDD
S11302009870292F30E0220F331F8770282B242B5E
S113021028BB8BB384608BBBF5E0FA95F1F7000043
S11302208BB38B7F8BBB8FE39FE10197F1F700C00A
S11302300000089587B3876187BB8AB38C608ABB4B
S11302408FE59AEE0197F1F700C0000082E00E946A
S1130250D70088E20E94D7008CE00E94D70086E095
S11302600E94D70081E00E94D70080E80E94D70056
S1130270089598B3987E98BB282F22952F7038B391
S1130280922F9870492F50E0440F551F2770422B2E
S1130290432B48BB9BB398609BBB9BB394609BBBB5
S11302A095E09A95F1F700009BB39B7F9BBBEFE829
S11302B0F1E03197F1F700C0000098B3987E98BB45
S11302C048B3982F9870292F30E0220F331F87707E
S11302D0282B242B28BB8BB384608BBBF5E0FA95C9
S11302E0F1F700008BB38B7F8BBB8FE891E0019714
S11302F0F1F700C0000008950F931F93CF93DF938D
S11303008C01C0E0D0E003C00E9439012196F801BD
S1130310EC0FFD1F80818111F7CFDF91CF911F91E9
S11303200F91089581E00E94D70008950F931F93C1
S1130330CF93DF93C0E0D0E025C0D901AA0FBB1F43
S1130340A80FB91F4D915C911197F9013196EE0FE9
S1130350FF1FE80FF91F008111810417150724F40A
S11303600D931C93518340832F5F3F4F02C020E0C5
S113037030E0AB014C1B5D0B41505109241735078C
S1130380E4F221969B0121503109C217D3077CF373
S1130390DF91CF911F910F910895CF93DF93CDB744
S11303A0DEB768970FB6F894DEBF0FBECDBF0E94CC
S11303B0A7020E941A010E9449000E944603FE01FE
S11303C0319684E1DF011D928A95E9F7E12CF12C45
S11303D000E010E0CC24C3940E946E00D82E882341
S11303E009F450C080ED8D0D8A3090F5043011056C
S11303F07CF58D2D90E09C0120533109F701EE0F1F
S1130400FF1F81E090E08C0F9D1FE80FF91F808192
S11304109181AC01440F551F880F991F880F991FB4
S1130420880F991F840F951F820F931F91838083D8
S11304300F5F1F4F8D2D0E9439019FEFA4E3BCE095
S11304409150A040B040E1F700C00000CC24C39418
S11304502BE2D21217C080E20E9439018FEF90E79D
S1130460A2E081509040A040E1F700C00000CC2001
S113047039F0BFEFEB1AFB0A00E010E0C12C02C018
S113048000E010E025E4D212A7CF1E141F040CF0E4
S113049048C00E949201B7016F5F7F4FCE01019661
S11304A00E94960100E010E039C080E20E94390108
S11304B08FEF94E3ACE081509040A040E1F700C09E
S11304C00000F801EE0FFF1F81E090E08C0F9D1FEC
S11304D0E80FF91F81818F9380818F9380E790E0EB
S11304E09F938F936E0195E1C90ED11CDF92CF9239
S11304F00E94A303AFEFB9E628E1A150B040204029
S1130500E1F700C00000C6010E947C010F5F1F4F8D
S11305100F900F900F900F900F900F90E016F10630
S113052024F600E010E00FC0F801EE0FFF1F81E099
S113053090E08C0F9D1FE80FF91F808191810E942C
S1130540C6020F5F1F4FE016F10674F7EACF87B3B8
S1130550806487BB87B3806287BB8AB384608ABBAD
S11305608AB388608ABB87B3876187BB089598B3D1
S1130570987E98BB48B3982F9870292F30E0220FAB
S1130580331F8770282B242B28BB08951F93CF93E8
S1130590DF93FC0188B3806488BB88B3806288BB26
S11305A08BB384608BBB8BB388608BBB2AE030E059
S11305B0CF01B9010E947B03C82FCB01B9010E946E
S11305C07B03D82FCF0164E670E00E947B03CB014C
S11305D0B9010E947B03182FCF0168EE73E00E94DB
S11305E07B03CB01B9010E947B032FEF33ED90E332
S11305F0215030409040E1F700C0000098B39F7B49
S113060098BB0E94B7022FEF33ED80E321503040B6
S11306108040E1F700C0000088B3806488BB88B3E1
S11306208F7D88BB812F0E94B7029FEF23ED30E3BB
S1130630915020403040E1F700C0000088B3806250
S113064088BB8BB38B7F8BBB8D2F0E94B7028FEF40
S113065093ED20E3815090402040E1F700C000007A
S11306608BB384608BBB8BB3877F8BBB8C2F0E9437
S1130670B7023FEF83ED90E3315080409040E1F7C3
S113068000C00000DF91CF911F91089512BE89B779
S1130690816089BF85E883BF8FB780688FBF089565
S11306A01F920F920FB60F9211242F933F934F93E3
S11306B05F936F937F938F939F93AF93BF93EF93C6
S11306C0FF93E0917500F0917600309719F08091D6
S11306D074000995FF91EF91BF91AF919F918F9114
S11306E07F916F915F914F913F912F910F900FBE2A
S11306F00F901F90189597FB072E16F4009407D0BF
S113070077FD09D00E948F0307FC05D03EF4909535
S113071081959F4F0895709561957F4F0895AA1B09
S1130720BB1B51E107C0AA1FBB1FA617B70710F0D8
S1130730A61BB70B881F991F5A95A9F7809590950A
S1130740BC01CD010895AEE0B0E0E9EAF3E00C9419
S113075064060D891E8986E08C831A8309838FEFD2
S11307609FE79E838D83AE01475E5F4F6F89788DCF
S1130770CE0101960E94C503EF81F885E00FF11FB9
S113078010822E96E4E00C948006ABE0B0E0EBEC33
S1130790F3E00C9456066C017B018A01FC0117827C
S11307A01682838181FFCCC1CE0101963C01F60102
S11307B09381F70193FD859193FF81917F018823B4
S11307C009F4BAC1853239F493FD859193FF81917F
S11307D07F01853229F4B60190E00E94BC05E7CF81
S11307E0912C212C312CFFE1F315D8F08B3279F0C8
S11307F038F4803279F08332A1F4232D20611DC0B6
S11308008D3261F0803369F4232D216016C0832D6D
S11308108260382EE32DE4603E2E2AC0F32DF8606A
S11308201DC037FC2DC020ED280F2A3040F08E3239
S1130830B9F436FC81C1232D2064322E19C036FE52
S113084006C08AE0989E200D1124922E11C0EAE081
S11308502E9E200D1124222EF32DF0623F2E08C06F
S11308608C3621F4832D8068382E02C0883641F4FA
S1130870F70193FD859193FF81917F018111B3CF9E
S1130880982F9F7D9554933028F40C5F1F4F9FE35E
S113089099830DC0833631F0833771F0833509F0C5
S11308A059C021C0F801808189830E5F1F4F8824BD
S11308B08394912C530113C02801F2E04F0E511C74
S11308C0F801A080B18036FE03C0692D70E002C03B
S11308D06FEF7FEFC5010E94B1054C018201F32D3A
S11308E0FF773F2E16C0280122E0420E511CF8016A
S11308F0A080B18036FE03C0692D70E002C06FEFA6
S11309007FEFC5010E94A6054C01F32DF0683F2E30
S1130910820133FC1BC0822D90E088169906B0F446
S1130920B60180E290E00E94BC052A94F4CFF50160
S113093037FC859137FE81915F01B60190E00E94FA
S1130940BC0521102A9421E0821A91088114910493
S113095071F7E8C0843611F0893641F5F80137FEA5
S113096007C060817181828193810C5F1F4F08C031
S113097060817181072E000C880B990B0E5F1F4F4D
S1130980F32DFF763F2E97FF09C0909580957095C3
S113099061957F4F8F4F9F4FF0683F2E2AE030E0E4
S11309A0A3010E94F805882E861845C0853731F4C6
S11309B0232D2F7EB22E2AE030E025C0932D997F7F
S11309C0B92E8F36C1F018F4883579F0B5C0803768
S11309D019F0883721F0B0C0E92FE061BE2EB4FED3
S11309E00DC0FB2DF460BF2E09C034FE0AC0292FB0
S11309F02660B22E06C028E030E005C020E130E0D9
S1130A0002C020E132E0F801B7FE07C060817181C5
S1130A10828193810C5F1F4F06C06081718180E0E9
S1130A2090E00E5F1F4FA3010E94F805882E8618E0
S1130A30FB2DFF773F2E36FE0DC0232D2E7FA22ED9
S1130A40891458F434FE0BC032FC09C0832D8E7E09
S1130A50A82E05C0B82CA32C03C0B82C01C0B92CF7
S1130A60A4FE0FC0FE01E80DF11D8081803321F446
S1130A709A2D997EA92E09C0A2FE06C0B394B39400
S1130A8004C08A2D867809F0B394A3FC11C0A0FE9B
S1130A9006C0B21488F4280C922C9B180EC0B21411
S1130AA060F4B60180E290E00E94BC05B394F7CFF5
S1130AB0B21418F42B1802C0982C212CA4FE10C0D8
S1130AC0B60180E390E00E94BC05A2FE17C0A1FC21
S1130AD003C088E790E002C088E590E0B6010CC04E
S1130AE08A2D867859F0A1FE02C08BE201C080E213
S1130AF0A7FC8DE2B60190E00E94BC05891438F48D
S1130B00B60180E390E00E94BC059A94F7CF8A94E2
S1130B10F301E80DF11D8081B60190E00E94BC054F
S1130B208110F5CF222009F442CEB60180E290E094
S1130B300E94BC052A94F6CFF6018681978102C0F3
S1130B408FEF9FEF2B96E2E10C947206FC01059067
S1130B50615070400110D8F7809590958E0F9F1FBB
S1130B600895FC016150704001900110D8F7809500
S1130B7090958E0F9F1F08950F931F93CF93DF932C
S1130B80FB01238121FD03C08FEF9FEF2CC022FFC7
S1130B9016C046815781248135814217530744F496
S1130BA0A081B1819D012F5F3F4F318320838C93BE
S1130BB0268137812F5F3F4F3783268314C08B01F3
S1130BC0EC01FB010084F185E02D0995892BE1F608
S1130BD0D80116968D919C911797019617969C9320
S1130BE08E931697CE01DF91CF911F910F910895A7
S1130BF0FA01AA27283051F1203181F1E8946F934A
S1130C006E7F6E5F7F4F8F4F9F4FAF4FB1E03ED0EF
S1130C10B4E03CD0670F781F891F9A1FA11D680F8D
S1130C20791F8A1F911DA11D6A0F711D811D911DC0
S1130C30A11D20D009F468943F912AE0269F112435
S1130C403019305D3193DEF6CF010895462F477099
S1130C50405D4193B3E00FD0C9F7F6CF462F4F70F4
S1130C60405D4A3318F0495D31FD4052419302D052
S1130C70A9F7EACFB4E0A6959795879577956795F8
S1130C80BA95C9F700976105710508959B01AC01F8
S1130C900A2E06945795479537952795BA95C9F71F
S1130CA0620F731F841F951FA01D08952F923F92FA
S1130CB04F925F926F927F928F929F92AF92BF9268
S1130CC0CF92DF92EF92FF920F931F93CF93DF9314
S1130CD0CDB7DEB7CA1BDB0B0FB6F894DEBF0FBE71
S1130CE0CDBF09942A88398848885F846E847D84BE
S1130CF08C849B84AA84B984C884DF80EE80FD80C0
S1130D000C811B81AA81B981CE0FD11D0FB6F89435
S1110D10DEBF0FBECDBFED010895F894FFCFF6
S1130D1E3738392F3435362A3132332D45303D2B81
S1070D2E2564000034
S9030000FC
